{
  "_format": "hh-sol-artifact-1",
  "contractName": "RelayerContract",
  "sourceName": "contracts/Relayer.sol",
  "abi": [
    {
      "inputs": [
        {
          "internalType": "address",
          "name": "_tokenAddress",
          "type": "address"
        }
      ],
      "stateMutability": "nonpayable",
      "type": "constructor"
    },
    {
      "inputs": [
        {
          "internalType": "address[]",
          "name": "_addresses",
          "type": "address[]"
        },
        {
          "internalType": "uint256[]",
          "name": "_bals",
          "type": "uint256[]"
        }
      ],
      "name": "make_payment",
      "outputs": [],
      "stateMutability": "nonpayable",
      "type": "function"
    },
    {
      "inputs": [],
      "name": "relayer",
      "outputs": [
        {
          "internalType": "address",
          "name": "",
          "type": "address"
        }
      ],
      "stateMutability": "view",
      "type": "function"
    },
    {
      "inputs": [],
      "name": "token",
      "outputs": [
        {
          "internalType": "contract IERC20",
          "name": "",
          "type": "address"
        }
      ],
      "stateMutability": "view",
      "type": "function"
    },
    {
      "inputs": [
        {
          "internalType": "address",
          "name": "_updateRelayer",
          "type": "address"
        }
      ],
      "name": "updateRelayer",
      "outputs": [],
      "stateMutability": "nonpayable",
      "type": "function"
    }
  ],
  "bytecode": "0x608060405234801561001057600080fd5b50604051610b1f380380610b1f8339818101604052810190610032919061011c565b336000806101000a81548173ffffffffffffffffffffffffffffffffffffffff021916908373ffffffffffffffffffffffffffffffffffffffff16021790555080600160006101000a81548173ffffffffffffffffffffffffffffffffffffffff021916908373ffffffffffffffffffffffffffffffffffffffff16021790555050610149565b600080fd5b600073ffffffffffffffffffffffffffffffffffffffff82169050919050565b60006100e9826100be565b9050919050565b6100f9816100de565b811461010457600080fd5b50565b600081519050610116816100f0565b92915050565b600060208284031215610132576101316100b9565b5b600061014084828501610107565b91505092915050565b6109c7806101586000396000f3fe608060405234801561001057600080fd5b506004361061004c5760003560e01c80633d3b7599146100515780638406c0791461006d5780638f83ab131461008b578063fc0c546a146100a7575b600080fd5b61006b60048036038101906100669190610685565b6100c5565b005b6100756102a6565b604051610082919061070c565b60405180910390f35b6100a560048036038101906100a09190610727565b6102ca565b005b6100af61039b565b6040516100bc91906107b3565b60405180910390f35b3373ffffffffffffffffffffffffffffffffffffffff1660008054906101000a900473ffffffffffffffffffffffffffffffffffffffff1673ffffffffffffffffffffffffffffffffffffffff1614610153576040517f08c379a000000000000000000000000000000000000000000000000000000000815260040161014a9061082b565b60405180910390fd5b60005b81518110156102a157600160009054906101000a900473ffffffffffffffffffffffffffffffffffffffff1673ffffffffffffffffffffffffffffffffffffffff166323b872dd60008054906101000a900473ffffffffffffffffffffffffffffffffffffffff168584815181106101d1576101d061084b565b5b60200260200101518585815181106101ec576101eb61084b565b5b60200260200101516040518463ffffffff1660e01b815260040161021293929190610889565b6020604051808303816000875af1158015610231573d6000803e3d6000fd5b505050506040513d601f19601f8201168201806040525081019061025591906108f8565b610294576040517f08c379a000000000000000000000000000000000000000000000000000000000815260040161028b90610971565b60405180910390fd5b8080600101915050610156565b505050565b60008054906101000a900473ffffffffffffffffffffffffffffffffffffffff1681565b3373ffffffffffffffffffffffffffffffffffffffff1660008054906101000a900473ffffffffffffffffffffffffffffffffffffffff1673ffffffffffffffffffffffffffffffffffffffff1614610358576040517f08c379a000000000000000000000000000000000000000000000000000000000815260040161034f9061082b565b60405180910390fd5b806000806101000a81548173ffffffffffffffffffffffffffffffffffffffff021916908373ffffffffffffffffffffffffffffffffffffffff16021790555050565b600160009054906101000a900473ffffffffffffffffffffffffffffffffffffffff1681565b6000604051905090565b600080fd5b600080fd5b600080fd5b6000601f19601f8301169050919050565b7f4e487b7100000000000000000000000000000000000000000000000000000000600052604160045260246000fd5b610423826103da565b810181811067ffffffffffffffff82111715610442576104416103eb565b5b80604052505050565b60006104556103c1565b9050610461828261041a565b919050565b600067ffffffffffffffff821115610481576104806103eb565b5b602082029050602081019050919050565b600080fd5b600073ffffffffffffffffffffffffffffffffffffffff82169050919050565b60006104c282610497565b9050919050565b6104d2816104b7565b81146104dd57600080fd5b50565b6000813590506104ef816104c9565b92915050565b600061050861050384610466565b61044b565b9050808382526020820190506020840283018581111561052b5761052a610492565b5b835b81811015610554578061054088826104e0565b84526020840193505060208101905061052d565b5050509392505050565b600082601f830112610573576105726103d5565b5b81356105838482602086016104f5565b91505092915050565b600067ffffffffffffffff8211156105a7576105a66103eb565b5b602082029050602081019050919050565b6000819050919050565b6105cb816105b8565b81146105d657600080fd5b50565b6000813590506105e8816105c2565b92915050565b60006106016105fc8461058c565b61044b565b9050808382526020820190506020840283018581111561062457610623610492565b5b835b8181101561064d578061063988826105d9565b845260208401935050602081019050610626565b5050509392505050565b600082601f83011261066c5761066b6103d5565b5b813561067c8482602086016105ee565b91505092915050565b6000806040838503121561069c5761069b6103cb565b5b600083013567ffffffffffffffff8111156106ba576106b96103d0565b5b6106c68582860161055e565b925050602083013567ffffffffffffffff8111156106e7576106e66103d0565b5b6106f385828601610657565b9150509250929050565b610706816104b7565b82525050565b600060208201905061072160008301846106fd565b92915050565b60006020828403121561073d5761073c6103cb565b5b600061074b848285016104e0565b91505092915050565b6000819050919050565b600061077961077461076f84610497565b610754565b610497565b9050919050565b600061078b8261075e565b9050919050565b600061079d82610780565b9050919050565b6107ad81610792565b82525050565b60006020820190506107c860008301846107a4565b92915050565b600082825260208201905092915050565b7f544849535f49535f4e4f545f52454c4159455200000000000000000000000000600082015250565b60006108156013836107ce565b9150610820826107df565b602082019050919050565b6000602082019050818103600083015261084481610808565b9050919050565b7f4e487b7100000000000000000000000000000000000000000000000000000000600052603260045260246000fd5b610883816105b8565b82525050565b600060608201905061089e60008301866106fd565b6108ab60208301856106fd565b6108b8604083018461087a565b949350505050565b60008115159050919050565b6108d5816108c0565b81146108e057600080fd5b50565b6000815190506108f2816108cc565b92915050565b60006020828403121561090e5761090d6103cb565b5b600061091c848285016108e3565b91505092915050565b7f544f4b454e5f5452414e534645525f4641494c45440000000000000000000000600082015250565b600061095b6015836107ce565b915061096682610925565b602082019050919050565b6000602082019050818103600083015261098a8161094e565b905091905056fea2646970667358221220f69a3afd3ca21e9fde31c2fbce268ddd3afea9c4fdfa4d2ebeb7873785c93e7d64736f6c634300081c0033",
  "linkReferences": {},
  "deployedLinkReferences": {}
}